:020000020000FC
:1000000009C018951895189518951895189518956C
:10001000189518950FE90DBF07E007BB0FEF08BB58
:1000200090E001D0FECF48D00CEC63D004E461D066
:1000300008EC37D041D00CEC5CD00EEB5AD074D029
:10004000102F72D0083008F00770107F102B129517
:10005000C19AC09AC29A1CC0173230F0909511F420
:10006000C2980895C29A0895163210F0C298089561
:10007000153230F0909511F4C2980895C098089503
:10008000143210F0C0980895133210F0C1980895FA
:10009000909511F4C1980895C19A08951197F1F7B8
:1000A00008950F93B3E0A8EEF9DFB3E0A8EEF6DF12
:1000B0000A95C1F70F910895C498BC9AB3E0ACEAD1
:1000C000EDDFBC98B0E0ACE8E9DF6894B49BE8945D
:1000D000B1E0A0EEE3DF089518F4B0E0A2E002C0C2
:1000E000B0E0A0EFBC9ADADFBC98B0E0A8E7D6DFBA
:1000F00008951F9310E00795EFDF13951830D9F797
:100100001F910895B0E0A2E0BC9AC8DFBC98B0E0AF
:10011000AAE0C4DFE894B4996894B0E0A4E6BEDF36
:1001200008940EF0889408951F9310E0EBDF079574
:1001300013951830D9F71F91089500270093650093
:10014000009366000093600001D008954091600024
:1001500000270093640000936200009367000395FA
:1001600000936100009363004E7F42FD86C0A4DFD0
:1001700046F4002700936500009366004B7F4E7F96
:1001800089C000EFF894B5DF78940027112742600A
:10019000F894B8DF001FB6DF111F7894002319F020
:1001A000112311F04EC04D7F0117D9F44260009128
:1001B000610010916500011751F040F46ED0088184
:1001C00010916300012319F44D7F01C04D7F41FD63
:1001D00008C00091610000936400093010F400939E
:1001E00066005BD041FF05C0088110916300012BC0
:1001F00006C0109163000FEF1027088101230883C8
:10020000089441FF8894F89467DF78940091610026
:1002100003950093610000916300000F0093630059
:1002200059F43BD0088151D00091620003950093AE
:10023000620001E00093630000916200083008F45E
:10024000A4CF00916100013408F417C00091670049
:10025000002309F012C000916400009365000023A0
:1002600009F444600091660010916500011719F4CB
:1002700000270093660041600DC040FD0BC0009157
:100280006800002339F44D7F002700936500009338
:1002900066004E7F409360000895D0E0C8E600916C
:1002A00062001127C00FD11F0895D0E0C8E608E012
:1002B000112719930A95E9F70895D0E0C8E618E0E8
:1002C000099117DF1A95E1F708951091670001274A
:1002D000F1E0E4E78894EE1FFF1FE00F10E0F11F4C
:1002E0000491009367000895005EBCE2613FDD83E6
:1002F000C29C7E20A3FD1F419DC3217FFCA2401E06
:100300005F01E3BD3E6082DC237D9FC1421CFEA0F5
:10031000E1BF5D0380DE3C62BEE0025CDF81633DE5
:100320007C22C09E1D43A1FF4618FAA427799BC5D5
:1003300084DA3866E5BB5907DB856739BAE40658C5
:100340001947A5FB7826C49A653BD987045AB8E6B5
:10035000A7F91B45C6987A24F8A6441A99C7257BA5
:100360003A6486D85B05E7B98CD2306EEDB3510F95
:100370004E10F2AC2F7193CD114FADF3702ECC9285
:10038000D38D6F31B2EC0E50AFF1134DCE90722C75
:100390006D33D18F0C52B0EE326C8ED0530DEFB165
:1003A000F0AE4C1291CF2D73CA947628ABF5174955
:1003B0000856B4EA6937D58B5709EBB536688AD445
:1003C00095CB2977F4AA4816E9B7550B88D6346A35
:1003D0002B7597C94A14F6A8742AC896154BA9F725
:0803E000B6E80A54D7896B3519
:00000001FF
