:020000020000FC
:1000000009C018951895189518951895189518956C
:10001000189518950FE90DBF07E007BB0FEF08BB58
:1000200001D0FECF32D00CEC4DD004E44BD004E62E
:1000300021D02BD00CEC46D00EEB44D05ED0102F4C
:100040005CD0083008F00770107F102B1295C19A11
:10005000C09AC29A123310F0C2980895183210F064
:10006000C09808951E3110F0C19808950895119711
:10007000F1F708950F93B3E0A8EEF9DFB3E0A8EE2F
:10008000F6DF0A95C1F70F910895C498BC9AB3E0C2
:10009000ACEAEDDFBC98B0E0ACE8E9DF6894B49B73
:1000A000E894B1E0A0EEE3DF089518F4B0E0A2E038
:1000B00002C0B0E0A0EFBC9ADADFBC98B0E0A8E7DD
:1000C000D6DF08951F9310E00795EFDF13951830E2
:1000D000D9F71F910895B0E0A2E0BC9AC8DFBC98A0
:1000E000B0E0AAE0C4DFE894B4996894B0E0A4E674
:1000F000BEDF08940EF0889408951F9310E0EBDFA4
:10010000079513951830D9F71F910895002700938C
:100110009500009396000093900001D008954091BF
:1001200090000027009394000093920000939700A2
:10013000039500939100009393004E7F42FD86C08B
:10014000A4DF46F4002700939500009396004B7FB0
:100150004E7F89C000EFF894B5DF7894002711270F
:100160004260F894B8DF001FB6DF111F78940023B7
:1001700019F0112311F04EC04D7F0117D9F44260E0
:100180000091910010919500011751F040F46ED04C
:10019000088110919300012319F44D7F01C04D7F18
:1001A00041FD08C00091910000939400093010F4C3
:1001B000009396005BD041FF05C008811091930029
:1001C000012B06C0109193000FEF10270881012327
:1001D0000883089441FF8894F89467DF789400912D
:1001E000910003950093910000919300000F0093FC
:1001F000930059F43BD0088151D0009192000395AF
:100200000093920001E00093930000919200083067
:1002100008F4A4CF00919100013408F417C00091B4
:100220009700002309F012C00091940000939500FC
:10023000002309F444600091960010919500011785
:1002400019F400270093960041600DC040FD0BC0DB
:1002500000919800002339F44D7F0027009395000A
:10026000009396004E7F409390000895D0E0C8E937
:10027000009192001127C00FD11F0895D0E0C8E966
:1002800008E0112719930A95E9F70895D0E0C8E925
:1002900018E0099117DF1A95E1F70895109197007A
:1002A0000127F1E0EDE58894EE1FFF1FE00F10E05D
:1002B000F11F0491009397000895005EBCE2613F36
:1002C000DD83C29C7E20A3FD1F419DC3217FFCA234
:1002D000401E5F01E3BD3E6082DC237D9FC1421C66
:1002E000FEA0E1BF5D0380DE3C62BEE0025CDF8118
:1002F000633D7C22C09E1D43A1FF4618FAA42779C6
:100300009BC584DA3866E5BB5907DB856739BAE4F3
:1003100006581947A5FB7826C49A653BD987045A25
:10032000B8E6A7F91B45C6987A24F8A6441A99C7D7
:10033000257B3A6486D85B05E7B98CD2306EEDB385
:10034000510F4E10F2AC2F7193CD114FADF3702EB3
:10035000CC92D38D6F31B2EC0E50AFF1134DCE90E5
:10036000722C6D33D18F0C52B0EE326C8ED0530D97
:10037000EFB1F0AE4C1291CF2D73CA947628ABF545
:1003800017490856B4EA6937D58B5709EBB5366873
:100390008AD495CB2977F4AA4816E9B7550B88D6A5
:1003A000346A2B7597C94A14F6A8742AC896154B57
:0A03B000A9F7B6E80A54D7896B35A7
:00000001FF
